:020000040800F2
:10000000005000206D0800081108000817080008BB
:100010001D08000823080008290800080000000047
:100020000000000000000000000000002F08000891
:100030003B080008000000004708000853080008BB
:10004000B5080008B5080008B5080008B50800089C
:10005000B5080008B5080008B5080008B50800088C
:10006000B5080008B5080008B5080008B50800087C
:10007000B5080008B5080008B5080008B50800086C
:10008000B5080008B5080008B5080008B50800085C
:10009000B5080008B5080008B5080008B50800084C
:1000A000B5080008B5080008B5080008B50800083C
:1000B000B5080008B5080008B5080008B50800082C
:1000C000B5080008B5080008B5080008B50800081C
:1000D000B5080008B5080008B5080008B50800080C
:1000E000B5080008B5080008B508000800000000C1
:1000F0000000000000000000000000000000000000
:0C01000000000000000000005FF808F1A3
:10010C0010B5054C237833B9044B13B10448AFF345
:10011C0000800123237010BD0C0A00200000000099
:10012C00B81B000808B5034B1BB103490348AFF3D8
:10013C00008008BD00000000100A0020B81B000859
:10014C0080B584B000AF03460A46FB711346BB7101
:10015C000023BB81FB793B73BB797B73002210219D
:10016C00094800F091FE07F10C0101230222074817
:10017C0001F00EFB01221021034800F085FE00BFA8
:10018C001037BD4680BD00BF00080140280A002082
:10019C0080B485B000AF78600023FB730023BB6094
:1001AC000DE0FB7B5B005AB27B68B96853F82130D9
:1001BC005BB213435BB2FB73BB680133BB60BB68C0
:1001CC00072BEEDDFB7B18461437BD4680BC704711
:1001DC0080B582B000AF03460A46FB711346BB7173
:1001EC00BA79FB7911461846FFF7AAFF00BF08370A
:1001FC00BD4680BD80B582B000AF78607868FFF7EF
:10020C00C7FF034619460120FFF79AFF7B6820338E
:10021C001846FFF7BDFF034619460220FFF790FF73
:10022C007B6840331846FFF7B3FF0346194603209B
:10023C00FFF786FF7B6860331846FFF7A9FF03467C
:10024C0019460420FFF77CFF7B6880331846FFF7C4
:10025C009FFF034619460520FFF772FF7B68A0330A
:10026C001846FFF795FF034619460620FFF768FF6F
:10027C007B68C0331846FFF78BFF034619460720EF
:10028C00FFF75EFF7B68E0331846FFF781FF0346FC
:10029C0019460820FFF754FF00BF0837BD4680BD44
:1002AC0080B500AF00210120FFF74AFF002102209A
:1002BC00FFF746FF00210320FFF742FF0021042037
:1002CC00FFF73EFF00210520FFF73AFF0021062033
:1002DC00FFF736FF00210720FFF732FF002108202F
:1002EC00FFF72EFF00BF80BD80B500AFFFF7D8FF32
:1002FC004FF4FA7000F03CFB2348FFF77BFF4FF400
:10030C00FA7000F035FB2148FFF774FF4FF4FA70D8
:10031C0000F02EFB1E48FFF76DFF4FF4FA7000F053
:10032C0027FB1C48FFF766FF4FF4FA7000F020FB28
:10033C001948FFF75FFF4FF4FA7000F019FB1748EC
:10034C00FFF758FF4FF4FA7000F012FB1448FFF758
:10035C0051FF4FF4FA7000F00BFB1248FFF74AFF05
:10036C004FF4FA7000F004FB0F48FFF743FF4FF413
:10037C00FA7000F0FDFA0D48FFF73CFF4FF4FA70ED
:10038C0000F0F6FA00BF80BD000000200001002044
:10039C0000020020000300200004002000050020C3
:1003AC0000060020000700200008002000090020A3
:1003BC0080B586B000AF00F079FA00F0DBF800F001
:1003CC0055F900F01DF900210920FFF7B9FE0221B3
:1003DC000A20FFF7B5FE01210C20FFF7B1FE00212A
:1003EC000F20FFF7ADFE07210B20FFF7A9FEFFF74B
:1003FC0057FF01237B61FFF777FF01237B6100230C
:10040C003B6139E07B69DBB219460120FFF7E0FE66
:10041C007B69DBB219460220FFF7DAFE7B69DBB29F
:10042C0019460320FFF7D4FE7B69DBB21946042082
:10043C00FFF7CEFE7B69DBB219460520FFF7C8FE3D
:10044C007B69DBB219460620FFF7C2FE7B69DBB283
:10045C0019460720FFF7BCFE7B69DBB21946082062
:10046C00FFF7B6FE7B695B007B614FF4967000F082
:10047C007FFA3B6901333B613B69062BC2DD0023EC
:10048C00FB6039E07B69DBB219460120FFF7A0FE67
:10049C007B69DBB219460220FFF79AFE7B69DBB25F
:1004AC0019460320FFF794FE7B69DBB21946042042
:1004BC00FFF78EFE7B69DBB219460520FFF788FE3D
:1004CC007B69DBB219460620FFF782FE7B69DBB243
:1004DC0019460720FFF77CFE7B69DBB21946082022
:1004EC00FFF776FE7B695B107B614FF4967000F032
:1004FC003FFAFB680133FB60FB68072BC2DDFFF79B
:10050C00CFFE0123BB6014E0BB68DBB2FF211846B1
:10051C00FFF75EFEBB68DBB2013BDBB20021184685
:10052C00FFF756FE4FF4967000F022FABB680133C9
:10053C00BB60BB68082BE7DD08237B6108237B606D
:10054C0014E07B68DBB200211846FFF741FE7B68A4
:10055C00DBB2013BDBB2FF211846FFF739FE4FF44B
:10056C00967000F005FA7B68013B7B607B68002B82
:10057C00E7DC40E780B590B000AF07F11803282204
:10058C000021184601F00AFB3B1D00221A605A603C
:10059C009A60DA601A610123BB614FF48033FB610E
:1005AC0000233B620123BB6202237B634FF4803345
:1005BC00BB634FF4E013FB6307F11803184600F01C
:1005CC007BFC0346002B01D000F09AF80F237B60D4
:1005DC000223BB600023FB604FF480633B6100236C
:1005EC007B613B1D0221184600F0E6FE0346002B02
:1005FC0001D000F085F800BF4037BD4680BD00003B
:10060C0080B500AF174B184A1A60164B4FF4827224
:10061C005A60144B00229A60124B0022DA60114B84
:10062C0000221A610F4B00225A610E4B4FF40072DC
:10063C009A610C4B3822DA610A4B00221A62094B80
:10064C0000225A62074B00229A62064B0A22DA6297
:10065C00044801F019F80346002B01D000F050F8C3
:10066C0000BF80BD280A00200030014080B588B052
:10067C0000AF07F1100300221A605A609A60DA602A
:10068C001D4B9B691C4A43F0100393611A4B9B69E9
:10069C0003F01003FB60FB68174B9B69164A43F091
:1006AC0020039361144B9B6903F02003BB60BB6870
:1006BC00114B9B69104A43F0040393610E4B9B69E9
:1006CC0003F004037B607B68012210210B4800F0CF
:1006DC00DBFB10233B6101237B610123BB61012305
:1006EC00FB6107F110031946044800F049FA00BFFA
:1006FC002037BD4680BD00BF0010024000080140FD
:10070C0080B400AF72B600BFFEE7000080B485B0C5
:10071C0000AF154B9B69144A43F001039361124BD4
:10072C009B6903F00103BB60BB680F4BDB690E4A8E
:10073C0043F08053D3610C4BDB6903F080537B6037
:10074C007B680A4B5B68FB60FB6823F0E063FB6033
:10075C00FB6843F00073FB60044AFB68536000BF06
:10076C001437BD4680BC70470010024000000140A9
:10077C0080B588B000AF786007F1100300221A60D2
:10078C005A609A60DA607B681B681B4A93422FD1CF
:10079C001A4B9B69194A43F480539361174B9B691D
:1007AC0003F48053FB60FB68144B9B69134A43F0C2
:1007BC0004039361114B9B6903F00403BB60BB689A
:1007CC00A0233B6102237B610123FB6107F1100332
:1007DC0019460B4800F0D4F940233B6100237B61A0
:1007EC000123BB6107F110031946054800F0C8F955
:1007FC0000BF2037BD4680BD0030014000100240D4
:10080C000008014080B400AFFEE780B400AFFEE703
:10081C0080B400AFFEE780B400AFFEE780B400AF59
:10082C00FEE780B400AF00BFBD4680BC704780B40B
:10083C0000AF00BFBD4680BC704780B400AF00BFA6
:10084C00BD4680BC704780B500AF00F075F800BFA6
:10085C0080BD80B400AF00BFBD4680BC70470000B7
:10086C000C480D490D4A002302E0D458C4500433FF
:10087C00C4188C42F9D30A4A0A4C002301E01360D5
:10088C000432A242FBD3FFF7E4FF01F063F9FFF758
:10089C008FFD7047000000200C0A0020F81B000898
:1008AC000C0A0020840A0020FEE7000080B500AF8F
:1008BC00084B1B68074A43F010031360032000F039
:1008CC002BF9002000F008F8FFF720FF0023184652
:1008DC0080BD00BF0020024080B582B000AF7860C0
:1008EC00124B1A68124B1B7819464FF47A73B3FBF0
:1008FC00F1F3B2FBF3F3184600F035F90346002B85
:10090C0001D001230EE07B680F2B0AD800227968F6
:10091C004FF0FF3000F00BF9064A7B6813600023A0
:10092C0000E0012318460837BD4680BD000A0020B0
:10093C00080A0020040A002080B400AF054B1B7885
:10094C001A46054B1B681344034A136000BFBD468F
:10095C0080BC7047080A0020800A002080B400AFD9
:10096C00024B1B681846BD4680BC7047800A0020AD
:10097C0080B584B000AF7860FFF7F0FFB8607B689B
:10098C00FB60FB68B3F1FF3F05D00A4B1B781A469E
:10099C00FB681344FB6000BFFFF7E0FF0246BB6837
:1009AC00D31AFA689A42F7D800BF00BF1037BD4679
:1009BC0080BD00BF080A002080B485B000AF78600D
:1009CC007B6803F00703FB600C4BDB68BB60BA6809
:1009DC004FF6FF031340BB60FB681A02BB6813435E
:1009EC0043F0BF6343F40033BB60044ABB68D3607D
:1009FC0000BF1437BD4680BC704700BF00ED00E05F
:100A0C0080B400AF044BDB681B0A03F007031846E5
:100A1C00BD4680BC704700BF00ED00E080B483B0E1
:100A2C0000AF03463960FB7197F90730002B0ADBE6
:100A3C003B68DAB20C4997F907301201D2B20B4479
:100A4C0083F800230AE03B68DAB20849FB7903F02B
:100A5C000F03043B1201D2B20B441A7600BF0C37C1
:100A6C00BD4680BC704700BF00E100E000ED00E037
:100A7C0080B489B000AFF860B9607A60FB6803F0AD
:100A8C000703FB61FB69C3F10703042B28BF042395
:100A9C00BB61FB690433062B02D9FB69033B00E005
:100AAC0000237B614FF0FF32BB6902FA03F3DA4398
:100ABC00BB681A407B699A404FF0FF317B6901FAA1
:100ACC0003F3D9437B680B40134318462437BD46C8
:100ADC0080BC704780B582B000AF78607B68013B0A
:100AEC00B3F1807F01D301230FE00A4A7B68013BFD
:100AFC0053600F214FF0FF30FFF790FF054B0022A2
:100B0C009A60044B07221A60002318460837BD462A
:100B1C0080BD00BF10E000E080B582B000AF78600F
:100B2C007868FFF749FF00BF0837BD4680BD80B528
:100B3C0086B000AF0346B9607A60FB7300237B611B
:100B4C00FFF75EFF78617A68B9687869FFF790FF04
:100B5C00024697F90F3011461846FFF75FFF00BFAA
:100B6C001837BD4680BD80B582B000AF786078681C
:100B7C00FFF7B0FF034618460837BD4680BD00009E
:100B8C0080B48BB000AF7860396000237B620023A7
:100B9C003B6269E101227B6A02FA03F3FB613B6869
:100BAC001B68FA691340BB61BA69FB699A4240F051
:100BBC0058813B685B689A4A93425ED0984A93424C
:100BCC0075D8984A934258D0964A93426FD8964A11
:100BDC00934252D0944A934269D8944A93424CD04F
:100BEC00924A934263D8924A934246D0904A934297
:100BFC005DD8122B2AD8122B59D801A252F823F007
:100C0C00870C0008610C0008730C0008B50C000878
:100C1C00BB0C0008BB0C0008BB0C0008BB0C00088C
:100C2C00BB0C0008BB0C0008BB0C0008BB0C00087C
:100C3C00BB0C0008BB0C0008BB0C0008BB0C00086C
:100C4C00BB0C0008690C00087D0C0008794A934223
:100C5C0013D02CE03B68DB683B6229E03B68DB6827
:100C6C0004333B6224E03B68DB6808333B621FE0E3
:100C7C003B68DB680C333B621AE03B689B68002BDB
:100C8C0002D104233B6213E03B689B68012B05D126
:100C9C0008233B627B68FA691A6109E008233B620E
:100CAC007B68FA695A6103E000233B6200E000BFF5
:100CBC00BB69FF2B01D87B6801E07B6804337B6147
:100CCC00BB69FF2B02D87B6A9B0002E07B6A083B66
:100CDC009B003B617B691A680F213B6901FA03F3A6
:100CEC00DB431A40396A3B6901FA03F31A437B6907
:100CFC001A603B685B6803F08053002B00F0B180F6
:100D0C004D4B9B694C4A43F0010393614A4B9B69E1
:100D1C0003F00103BB60BB68484A7B6A9B08023343
:100D2C0052F82330FB607B6A03F003039B000F2215
:100D3C0002FA03F3DB43FA681340FB607B68404A1A
:100D4C00934213D07B683F4A93420DD07B683E4A56
:100D5C00934207D07B683D4A934201D1032306E0BE
:100D6C00042304E0022302E0012300E000237A6A5A
:100D7C0002F0030292009340FA681343FB602F4980
:100D8C007B6A9B080233FA6841F823203B685B6856
:100D9C0003F48033002B06D02D4B1A682C49BB6909
:100DAC0013430B6006E02A4B1A68BB69DB432849E6
:100DBC0013400B603B685B6803F40033002B06D0D8
:100DCC00234B5A682249BB6913434B6006E0204B06
:100DDC005A68BB69DB431E4913404B603B685B6838
:100DEC0003F48013002B06D0194B9A681849BB6981
:100DFC0013438B6006E0164B9A68BB69DB431449BE
:100E0C0013408B603B685B6803F40013002B21D00C
:100E1C000F4BDA680E49BB691343CB6021E000BF6E
:100E2C0000003210000031100000221000002110D0
:100E3C0000001210000011100010024000000140D0
:100E4C0000080140000C014000100140001401405A
:100E5C00000401400B4BDA68BB69DB4309491340C2
:100E6C00CB607B6A01337B623B681A687B6A22FA2F
:100E7C0003F3002B7FF48EAE00BF00BF2C37BD46B2
:100E8C0080BC70470004014080B483B000AF786030
:100E9C000B467B8013467B707B78002B03D07A88C3
:100EAC007B681A6103E07B881A047B681A6100BFB7
:100EBC000C37BD4680BC704780B586B000AF7860FB
:100ECC007B68002B01D101236CE27B681B6803F06B
:100EDC000103002B00F08780924B5B6803F00C033E
:100EEC00042B0CD08F4B5B6803F00C03082B12D136
:100EFC008C4B5B6803F48033B3F5803F0BD1894B8B
:100F0C001B6803F40033002B6CD07B685B68002BF0
:100F1C0068D1012346E27B685B68B3F5803F06D15C
:100F2C00804B1B687F4A43F4803313602EE07B6850
:100F3C005B68002B0CD17B4B1B687A4A23F4803303
:100F4C001360784B1B68774A23F4802313601DE0F1
:100F5C007B685B68B3F5A02F0CD1724B1B68714A90
:100F6C0043F4802313606F4B1B686E4A43F4803349
:100F7C0013600BE06B4B1B686A4A23F480331360DD
:100F8C00684B1B68674A23F4802313607B685B689B
:100F9C00002B13D0FFF7E2FC386108E0FFF7DEFC12
:100FAC0002463B69D31A642B01D90323FAE15D4B4A
:100FBC001B6803F40033002BF0D014E0FFF7CEFCD9
:100FCC00386108E0FFF7CAFC02463B69D31A642B70
:100FDC0001D90323E6E1534B1B6803F40033002BC8
:100FEC00F0D100E000BF7B681B6803F00203002B0C
:100FFC0063D04C4B5B6803F00C03002B0BD0494BBC
:10100C005B6803F00C03082B1CD1464B5B6803F4A4
:10101C008033002B16D1434B1B6803F00203002BCB
:10102C0005D07B681B69012B01D00123BAE13D4B34
:10103C001B6823F0F8027B685B69DB0039491343BA
:10104C000B603AE07B681B69002B20D0364B0122E9
:10105C001A60FFF783FC386108E0FFF77FFC02465B
:10106C003B69D31A022B01D903239BE12D4B1B683F
:10107C0003F00203002BF0D02A4B1B6823F0F8027C
:10108C007B685B69DB00274913430B6015E0264B3B
:10109C0000221A60FFF762FC386108E0FFF75EFC83
:1010AC0002463B69D31A022B01D903237AE11D4B6B
:1010BC001B6803F00203002BF0D17B681B6803F064
:1010CC000803002B3AD07B689B69002B19D0174B77
:1010DC0001221A60FFF742FC386108E0FFF73EFC82
:1010EC0002463B69D31A022B01D903235AE10D4B5B
:1010FC005B6A03F00203002BF0D0012000F0A6FA8B
:10110C001CE00A4B00221A60FFF728FC38610FE044
:10111C00FFF724FC02463B69D31A022B08D90323A0
:10112C0040E100BF001002400000424280044242F5
:10113C009E4B5B6A03F00203002BE9D17B681B68B2
:10114C0003F00403002B00F0A6800023FB75974BE3
:10115C00DB6903F08053002B0DD1944BDB69934A70
:10116C0043F08053D361914BDB6903F08053BB6038
:10117C00BB680123FB758E4B1B6803F48073002B3B
:10118C0018D18B4B1B688A4A43F480731360FFF7AA
:10119C00E5FB386108E0FFF7E1FB02463B69D31A37
:1011AC00642B01D90323FDE0814B1B6803F480738E
:1011BC00002BF0D07B68DB68012B06D17B4B1B6AC4
:1011CC007A4A43F0010313622DE07B68DB68002B45
:1011DC000CD1764B1B6A754A23F001031362734BD7
:1011EC001B6A724A23F0040313621CE07B68DB6801
:1011FC00052B0CD16D4B1B6A6C4A43F00403136234
:10120C006A4B1B6A694A43F0010313620BE0674B9C
:10121C001B6A664A23F001031362644B1B6A634A20
:10122C0023F0040313627B68DB68002B15D0FFF7F7
:10123C0095FB38610AE0FFF791FB02463B69D31A34
:10124C0041F28832934201D90323ABE0574B1B6A1E
:10125C0003F00203002BEED014E0FFF77FFB3861A4
:10126C000AE0FFF77BFB02463B69D31A41F2883256
:10127C00934201D9032395E04C4B1B6A03F0020304
:10128C00002BEED1FB7D012B05D1484BDB69474A86
:10129C0023F08053D3617B68DB69002B00F08180E5
:1012AC00424B5B6803F00C03082B61D07B68DB6955
:1012BC00022B46D13F4B00221A60FFF74FFB3861DF
:1012CC0008E0FFF74BFB02463B69D31A022B01D90E
:1012DC00032367E0354B1B6803F00073002BF0D140
:1012EC007B681B6AB3F5803F08D1304B5B6823F4F5
:1012FC0000327B689B682D4913434B602B4B5B681A
:10130C0023F474127B68196A7B685B6A0B43274968
:10131C0013434B60274B01221A60FFF71FFB386108
:10132C0008E0FFF71BFB02463B69D31A022B01D9DD
:10133C00032337E01D4B1B6803F00073002BF0D028
:10134C002FE01C4B00221A60FFF708FB386108E005
:10135C00FFF704FB02463B69D31A022B01D9032386
:10136C0020E0124B1B6803F00073002BF0D118E047
:10137C007B68DB69012B01D1012313E00B4B5B680C
:10138C00FB60FB6803F480327B681B6A9A4206D1CF
:10139C00FB6803F470127B685B6A9A4201D00123EC
:1013AC0000E0002318461837BD4680BD00100240EF
:1013BC00007000406000424280B584B000AF78609D
:1013CC0039607B68002B01D10123D0E06A4B1B688C
:1013DC0003F007033A689A4210D9674B1B6823F055
:1013EC00070265493B6813430B60634B1B6803F0B2
:1013FC0007033A689A4201D00123B8E07B681B6866
:10140C0003F00203002B20D07B681B6803F004035D
:10141C00002B05D0594B5B68584A43F4E06353608A
:10142C007B681B6803F00803002B05D0534B5B68EB
:10143C00524A43F460535360504B5B6823F0F00204
:10144C007B689B684D4913434B607B681B6803F0BA
:10145C000103002B40D07B685B68012B07D1474B05
:10146C001B6803F40033002B15D101237FE07B684C
:10147C005B68022B07D1414B1B6803F00073002BF8
:10148C0009D1012373E03D4B1B6803F00203002BD1
:10149C0001D101236BE0394B5B6823F003027B68BD
:1014AC005B68364913434B60FFF758FAF8600AE063
:1014BC00FFF754FA0246FB68D31A41F28832934282
:1014CC0001D9032353E02D4B5B6803F00C027B68BE
:1014DC005B689B009A42EBD1274B1B6803F0070318
:1014EC003A689A4210D2244B1B6823F00702224917
:1014FC003B6813430B60204B1B6803F007033A68EF
:10150C009A4201D0012332E07B681B6803F004038C
:10151C00002B08D0194B5B6823F4E0627B68DB6816
:10152C00164913434B607B681B6803F00803002BC0
:10153C0009D0124B5B6823F460527B681B69DB009B
:10154C000E4913434B6000F021F802460B4B5B68CD
:10155C001B0903F00F030A49CB5C22FA03F3094A77
:10156C001360094B1B681846FFF7B6F900231846A1
:10157C001037BD4680BD00BF002002400010024065
:10158C00E01B0008000A0020040A002090B48AB076
:10159C0000AF2A4B3C1D0FCB84E80F0040F2012317
:1015AC003B800023FB610023BB6100237B62002393
:1015BC007B6100233B62224B5B68FB61FB6903F0A0
:1015CC000C03042B02D0082B03D02DE01D4B3B62E7
:1015DC002DE0FB699B0C03F00F0307F12802134469
:1015EC0013F8243C7B61FB6903F48033002B13D08C
:1015FC00134B5B685B0C03F0010307F128021344E7
:10160C0013F8283CBB617B690E4A02FB03F2BB69F1
:10161C00B2FBF3F37B6204E07B690B4A02FB03F33E
:10162C007B627B6A3B6202E0064B3B6200BF3B6A1B
:10163C0018462837BD4690BC704700BFD01B000829
:10164C000010024000127A0000093D0080B485B001
:10165C0000AF78600A4B1B680A4AA2FB03235B0AA3
:10166C007A6802FB03F3FB6000BFFB685A1EFA604A
:10167C00002BF9D100BF00BF1437BD4680BC7047AA
:10168C00000A0020D34D621080B582B000AF7860A4
:10169C007B68002B01D1012376E07B685B6A002B11
:1016AC0008D17B685B68B3F5827F09D07B68002228
:1016BC00DA6105E07B6800221A617B6800225A61BE
:1016CC007B6800229A627B6893F85130DBB2002B66
:1016DC0006D17B68002283F850207868FFF748F821
:1016EC007B68022283F851207B681B681A687B6830
:1016FC001B6822F040021A607B685B6803F48272FC
:10170C007B689B6803F404431A437B68DB6803F42F
:10171C0000631A437B681B6903F002031A437B685E
:10172C005B6903F001031A437B689B6903F4007344
:10173C001A437B68DB6903F038031A437B681B6A26
:10174C0003F0800342EA03017B689B6A03F40052B6
:10175C007B681B680A431A607B689B691A0C7B6860
:10176C001B6802F004025A607B681B68DA697B68AC
:10177C001B6822F40062DA617B6800225A657B6880
:10178C00012283F85120002318460837BD4680BD3E
:10179C0080B588B000AFF860B9603B601346FB8041
:1017AC000023FB77FB6893F85030012B01D1022307
:1017BC0026E1FB68012283F85020FFF7CFF8B861CF
:1017CC00FB88FB82FB6893F85130DBB2012B02D013
:1017DC000223FB770BE1BB68002B02D0FB88002BAC
:1017EC0002D10123FB7702E1FB68032283F851202D
:1017FC00FB6800225A65FB68BA681A63FB68FA88B2
:10180C009A86FB68FA88DA86FB6800229A63FB6882
:10181C0000229A87FB680022DA87FB6800225A6450
:10182C00FB6800221A64FB689B68B3F5004F0FD16C
:10183C00FB681B681A68FB681B6822F040021A6080
:10184C00FB681B681A68FB681B6842F480421A60CC
:10185C00FB681B681B6803F04003402B07D0FB6838
:10186C001B681A68FB681B6842F040021A60FB6830
:10187C00DB68B3F5006F4BD1FB685B68002B02D0C3
:10188C00FB8A012B3ED1FB681B6B1A88FB681B681B
:10189C00DA60FB681B6B9A1CFB681A63FB68DB8EB7
:1018AC009BB2013B9AB2FB68DA862BE0FB681B68A3
:1018BC009B6803F00203022B12D1FB681B6B1A8886
:1018CC00FB681B68DA60FB681B6B9A1CFB681A636D
:1018DC00FB68DB8E9BB2013B9AB2FB68DA8611E0A7
:1018EC00FFF73CF80246BB69D31A3A689A4203D810
:1018FC003B68B3F1FF3F02D13B68002B02D10323BD
:10190C00FB7774E0FB68DB8E9BB2002BCED14CE0F6
:10191C00FB685B68002B02D0FB8A012B40D1FB6873
:10192C001A6BFB681B680C3312781A70FB681B6B04
:10193C005A1CFB681A63FB68DB8E9BB2013B9AB2A4
:10194C00FB68DA862CE0FB681B689B6803F00203DB
:10195C00022B13D1FB681A6BFB681B680C331278D3
:10196C001A70FB681B6B5A1CFB681A63FB68DB8ED6
:10197C009BB2013B9AB2FB68DA8611E0FEF7EEFFF0
:10198C000246BB69D31A3A689A4203D83B68B3F152
:10199C00FF3F02D13B68002B02D10323FB7726E0EB
:1019AC00FB68DB8E9BB2002BCDD1BA693968F86825
:1019BC0000F0B2F80346002B02D0FB6820225A65D7
:1019CC00FB689B68002B0AD100233B61FB681B68FA
:1019DC00DB683B61FB681B689B683B613B69FB6890
:1019EC005B6D002B02D00123FB7700E000BFFB688E
:1019FC00012283F85120FB68002283F85020FB7FE2
:101A0C0018462037BD4680BD80B588B000AFF86061
:101A1C00B9603B601346FB71FEF7A0FF0246BB6A40
:101A2C009B1A3A681344FB61FEF798FFB861394B77
:101A3C001B685B011B0DFA6902FB03F37B6154E02D
:101A4C003B68B3F1FF3F50D0FEF788FF0246BB69FD
:101A5C00D31AFA699A4202D9FB69002B3DD1FB6873
:101A6C001B685A68FB681B6822F0E0025A60FB682E
:101A7C005B68B3F5827F11D1FB689B68B3F5004FAF
:101A8C0004D0FB689B68B3F5806F07D1FB681B68BB
:101A9C001A68FB681B6822F040021A60FB689B6A9C
:101AAC00B3F5005F0FD1FB681B681A68FB681B68F5
:101ABC0022F400521A60FB681B681A68FB681B68EA
:101ACC0042F400521A60FB68012283F85120FB6833
:101ADC00002283F85020032317E07B69002B01D1EF
:101AEC000023FB617B69013B7B61FB681B689A6887
:101AFC00BB681340BA689A420CBF01230023DBB2C7
:101B0C001A46FB799A429BD1002318462037BD46D2
:101B1C0080BD00BF000A002080B586B002AFF8601F
:101B2C00B9607A607B680093BB6800228021F868FA
:101B3C00FFF76AFF0346002B07D0FB685B6D43F091
:101B4C002002FB685A65032300E000231846103777
:101B5C00BD4680BD70B500260C4D0D4C641BA41009
:101B6C00A64209D100F022F800260A4D0A4C641B4B
:101B7C00A410A64205D170BD55F8043B9847013618
:101B8C00EEE755F8043B98470136F2E7F01B0008E6
:101B9C00F01B0008F01B0008F41B0008034602446D
:101BAC00934200D1704703F8011BF9E7F8B500BF69
:101BBC00F8BC08BC9E467047F8B500BFF8BC08BC22
:041BCC009E4670477A
:101BD00002030405060708090A0B0C0D0E0F10106E
:101BE00000000000000000000102030406070809CD
:041BF00031010008B7
:041BF4000D010008D7
:101BF80000000000000000000100000001000000DB
:101C080001000000010000000000000000000000CA
:101C180000000000010000000100000000000000BA
:101C280000000000010000000100000000000000AA
:101C38000000000001000000010000000100000099
:101C4800000000000000000001000000000000008B
:101C5800000000000100000000000000010000007A
:101C6800010000000000000001000000000000006A
:101C7800000000000100000000000000000000005B
:101C88000100000001000000010000000000000049
:101C9800000000000100000000000000000000003B
:101CA800000000000100000001000000000000002A
:101CB800000000000100000001000000000000001A
:101CC800000000000100000001000000000000000A
:101CD80000000000000000000100000001000000FA
:101CE80001000000010000000000000000000000EA
:101CF80000000000000000000000000000000000DC
:101D080001000000000000000000000000000000CA
:101D180000000000000000000000000001000000BA
:101D280001000000000000000000000000000000AA
:101D38000000000000000000010000000100000099
:101D4800010000000000000000000000000000008A
:101D5800000000000000000000000000010000007A
:101D6800010000000000000000000000000000006A
:101D7800000000000000000000000000010000005A
:101D8800010000000000000000000000000000004A
:101D9800000000000000000000000000010000003A
:101DA800010000000000000000000000000000002A
:101DB800000000000000000000000000010000001A
:101DC800010000000000000000000000000000000A
:101DD80000000000000000000100000001000000F9
:101DE80001000000010000000000000000000000E9
:101DF80000000000000000000100000001000000D9
:101E080001000000010000000000000000000000C8
:101E180000000000010000000100000000000000B8
:101E280000000000010000000100000000000000A8
:101E38000000000001000000000000000000000099
:101E48000000000001000000010000000000000088
:101E58000000000001000000000000000000000079
:101E68000000000001000000010000000000000068
:101E78000000000000000000000000000100000059
:101E88000100000001000000000000000000000048
:101E98000000000000000000010000000100000038
:101EA800000000000000000000000000000000002A
:101EB8000000000001000000010000000000000018
:101EC800000000000000000000000000000000000A
:101ED80000000000010000000100000001000000F7
:101EE80001000000010000000100000000000000E7
:101EF80000000000000000000100000001000000D8
:101F080001000000010000000000000000000000C7
:101F180000000000010000000000000000000000B8
:101F280000000000010000000100000000000000A7
:101F38000000000000000000000000000000000099
:101F48000000000001000000010000000000000087
:101F58000000000000000000000000000100000078
:101F68000100000001000000010000000000000066
:101F78000000000000000000000000000100000058
:101F88000100000001000000010000000000000046
:101F98000000000000000000000000000000000039
:101FA8000000000001000000010000000000000027
:101FB8000000000001000000000000000000000018
:101FC8000000000001000000010000000000000007
:101FD80000000000000000000100000001000000F7
:101FE80001000000010000000000000000000000E7
:101FF80000000000000000000000000000000000D9
:1020080000000000010000000000000000000000C7
:1020180000000000000000000000000000000000B8
:1020280001000000010000000000000000000000A6
:102038000000000000000000000000000100000097
:102048000100000001000000000000000000000086
:102058000000000000000000010000000000000077
:102068000100000001000000000000000000000066
:102078000000000001000000000000000000000057
:102088000100000001000000000000000000000046
:102098000000000001000000010000000100000035
:1020A8000100000001000000010000000000000025
:1020B8000000000000000000000000000000000018
:1020C8000100000001000000000000000000000006
:1020D80000000000000000000000000000000000F8
:1020E80001000000010000000000000000000000E6
:1020F80000000000010000000100000001000000D5
:1021080001000000010000000100000000000000C4
:1021180000000000010000000100000000000000B5
:1021280000000000000000000000000000000000A7
:102138000000000001000000010000000000000095
:102148000000000000000000000000000000000087
:102158000000000001000000010000000100000074
:102168000100000001000000000000000000000065
:102178000000000001000000010000000100000054
:102188000100000001000000010000000000000044
:102198000000000000000000000000000000000037
:1021A8000000000001000000010000000000000025
:1021B8000000000001000000000000000000000016
:1021C8000000000001000000010000000000000005
:1021D80000000000000000000100000001000000F5
:1021E80001000000010000000000000000000000E5
:1021F80000000000000000000100000001000000D5
:1022080001000000010000000000000000000000C4
:1022180000000000010000000100000000000000B4
:1022280000000000000000000000000000000000A6
:102238000000000001000000010000000000000094
:102248000000000000000000000000000000000086
:102258000000000001000000010000000100000073
:102268000100000001000000000000000000000064
:102278000000000001000000010000000100000053
:102288000100000001000000010000000000000043
:102298000000000001000000010000000000000034
:1022A8000000000001000000010000000000000024
:1022B8000000000001000000010000000000000014
:1022C8000000000001000000010000000000000004
:1022D80000000000000000000100000001000000F4
:1022E80001000000010000000000000000000000E4
:1022F80000000000010000000100000001000000D3
:1023080001000000010000000100000000000000C2
:1023180000000000010000000000000000000000B4
:1023280000000000010000000100000000000000A3
:102338000000000000000000000000000000000095
:102348000000000001000000010000000000000083
:102358000000000000000000000000000000000075
:102368000000000001000000000000000000000064
:102378000000000000000000000000000000000055
:102388000100000001000000000000000000000043
:102398000000000000000000000000000100000034
:1023A8000100000000000000000000000000000024
:1023B8000000000000000000000000000100000014
:1023C8000100000000000000000000000000000004
:1023D80000000000000000000000000001000000F4
:1023E80001000000000000000000000000000000E4
:1023F80000000000000000000100000001000000D3
:1024080001000000010000000000000000000000C2
:1024180000000000010000000100000000000000B2
:1024280000000000010000000100000000000000A2
:102438000000000001000000010000000000000092
:102448000000000001000000010000000000000082
:102458000000000000000000010000000100000072
:102468000100000001000000000000000000000062
:102478000000000000000000010000000100000052
:102488000100000001000000000000000000000042
:102498000000000001000000010000000000000032
:1024A8000000000001000000010000000000000022
:1024B8000000000001000000010000000000000012
:1024C8000000000001000000010000000000000002
:1024D80000000000000000000100000001000000F2
:1024E80001000000010000000000000000000000E2
:1024F80000000000000000000100000001000000D2
:1025080001000000010000000000000000000000C1
:1025180000000000010000000100000000000000B1
:1025280000000000010000000100000000000000A1
:102538000000000001000000010000000000000091
:102548000000000001000000010000000000000081
:102558000000000001000000010000000100000070
:102568000100000001000000010000000000000060
:102578000000000000000000010000000100000051
:102588000100000001000000010000000000000040
:102598000000000000000000000000000000000033
:1025A8000000000001000000010000000000000021
:1025B8000000000001000000000000000000000012
:1025C8000000000001000000010000000000000001
:1025D80000000000000000000100000001000000F1
:1025E80001000000010000000000000000000000E1
:0C25F8000024F4001000000001000000AE
:040000050800086D7A
:00000001FF
